:020000040800F2
:10000000D00F0020A101000855330008092F000877
:1000100051330008090600081B60000800000000BA
:10002000000000000000000000000000FD38000893
:10003000AD06000800000000D736000801390008AE
:10004000BB010008BB010008BB010008BB010008A0
:10005000BB010008BB010008BB010008BB01000890
:10006000BB010008BB010008BB0100086D060008C9
:10007000BB010008BB010008BB010008BB01000870
:10008000BB010008BB010008BB010008BB01000860
:10009000BB010008BB010008BB010008BB01000850
:1000A000BB010008BB010008BB010008BB01000840
:1000B000BB0100080000000000000000BB010008B8
:1000C000BB0100080000000000000000BB010008A8
:1000D00000000000BB010008BB0100080000000098
:1000E000BB010008BB010008000000000000000088
:1000F0000000000000000000000000000000000000
:10010000000000000000000000000000BB0100082B
:100110000000000000000000BB010008BB01000857
:10012000BB010008BB010008BB010008BB010008BF
:10013000BB010008000000000000000000000000FB
:10014000BB010008BB010008BB010008695F000893
:10015000BB010008BB010008BB010008BB0100088F
:10016000BB010008BB010008BB0100080000000043
:10017000BB010008BB01000800000000BB01000833
:10018000BB010008BB010008BB010008DFF80CD070
:1001900000F090F80048004779600008D00F002078
:1001A0000648804706480047FEE7FEE7FEE7FEE711
:1001B000FEE7FEE7FEE7FEE7FEE7FEE7D5390008CB
:1001C0008D0100082DE9F05F0546002092469B4610
:1001D00088460646814640241BE02846414647465D
:1001E000224600F056F853465A46C01A914110D3A1
:1001F00011461846224600F03DF82D1A67EB01081B
:100200004F4622460120002100F034F817EB000988
:100210004E41201EA4F10104DFDC484631462A4647
:10022000434600F000B830BCBDE8C09F40EA01037F
:100230009B0703D009E008C9121F08C0042AFAD29C
:1002400003E011F8013B00F8013B521EF9D2704760
:10025000D2B201E000F8012B491EFBD27047002208
:10026000F6E710B513460A4604461946FFF7F0FFB5
:10027000204610BD202A04DB203A00FA02F10020BB
:1002800070479140C2F1200320FA03F319439040D4
:100290007047202A04DB203A21FA02F0002170473F
:1002A00021FA02F3D040C2F12002914008431946DE
:1002B00070470000064C074D06E0E06840F001037F
:1002C00094E8070098471034AC42F6D3FFF762FF7A
:1002D000D4620008F462000870B58C1810F8015B55
:1002E00015F0070301D110F8013B2A1106D110F8CF
:1002F000012B03E010F8016B01F8016B5B1EF9D1D3
:100300002B0705D40023521E0DD401F8013BFAE758
:1003100010F8013BCB1A921C03E013F8015B01F8C3
:10032000015B521EF9D5A142D8D3002070BD000058
:100330002DE9F05F044688464FF0000947462068E3
:1003400002F029FE8246206802F011FE8346BAF1CF
:10035000000F02D1BBF1000F6ED02068C06800F022
:10036000007000B3607E01281DD1207E01281AD1C3
:1003700001270FE0314881450AD3606D40F010003D
:100380006065A06D40F00100A065012000F05AB842
:1003900009F1010920680068C0F380100028E9D045
:1003A000402021680860022F10D0206802F0F3FD81
:1003B00060B1206802F0E0FD40B920688168204A01
:1003C000114041F01001816000BF00BF012F10D02B
:1003D000206802F0CCFD60B1206802F0CDFD40B98C
:1003E00020688168164A114041F02001816000BFF9
:1003F00000BF022F03D0032F03D10C2503E00825F3
:1004000001E0042500BF00BF01F0E8F806460EE059
:1004100001F0E4F8801B052809D9606D40F0100058
:100420006065A06D40F00100A0650120AEE7206886
:10043000806828400028EBD10020A7E7000040A3F7
:10044000C0FFFF7F30BCBDE8C09F70B50546AC6AF9
:10045000606D00F0500098BB606D40F40070606506
:100460002068006800F00800A8B1206802F098FD3C
:1004700010B32068C06800F40050E8B9606D20F443
:1004800080706065606D00F48050A8B9606D40F0C8
:100490000100606510E02068C06800F0020058B9F3
:1004A000606D20F480706065606D00F4805018B954
:1004B000606D40F001006065204600F0D3FB0CE069
:1004C000FFE7606D00F0100018B1204600F009FC55
:1004D00003E0E06C416B2846884770BD70B5054667
:1004E000AC6A606D40F040006065A06D40F00400B3
:1004F000A065204600F0F5FB70BD70B50446A56A06
:10050000284600F0EDFB70BD70B50446206802F08F
:1005100033FD0646206802F034FD70B36EBB2068E0
:10052000806800F00D0001280AD120688168174A10
:100530001140891C816000BF03202168086009E028
:10054000606D40F010006065A06D40F00100A06596
:10055000012070BD01F042F805460FE001F03EF8C1
:10056000401B02280AD9606D40F010006065A06D44
:1005700040F00100A0650120EBE705E020688068FD
:1005800000F001000028E9D10020E2E7C0FFFF7F72
:1005900070B50446206802F0F4FC88BB20688068CF
:1005A0001849084048B1606D40F010006065A06DCA
:1005B00040F00100A065012070BD206802F0C6FC7B
:1005C00001F00CF8054615E0206802F0DAFC10B9DD
:1005D000206802F0BBFC01F001F8401B022809D999
:1005E000606D40F010006065A06D40F00100A065F6
:1005F0000120E1E72068006800F001000028E3D056
:100600000020D9E73F00008000BFFEE700207047D0
:100610000020704770B505460E461248D0F890424B
:10062000002004E0215C104A1154411CC8B2042887
:10063000F8DB0D480078022811D10B4840780128DA
:1006400006D1012281024FF0904000F0C2FF06E087
:1006500000224FF480614FF0904000F0BAFF00207C
:1006600070BD000064040020E800002010B50248BE
:1006700000F07FFD10BD00007002002030B590F842
:10068000444004F01C050124AC40056C6C60046817
:1006900063608468102C04D10468A2600468E1607F
:1006A00003E00468A1600468E26030BD70477047F1
:1006B00070B50A480468001D0568001D06683444CA
:1006C00054B108220649204602F020FC04220449C5
:1006D0001031284602F01AFC70BD00009075FF1F13
:1006E00062000020F8B504460D460020009000BFCF
:1006F00094F85000012801D10220F8BD012084F8AF
:10070000500000BF2046FFF7FFFE06468EBB606D1F
:1007100020F4885040F002006065206881681B4A20
:10072000114005F0804242F000421143816000BF59
:1007300013E00098401C00900098B0F5912F0CD366
:10074000606D20F0020040F01000606500BF0020E6
:1007500084F8500000BF0120CFE720688168C90FEE
:100760000029E6D1606D20F0020040F001006065D4
:1007700004E0FFE7606D40F01000606500BF0020FE
:1007800084F8500000BF3046B7E70000C0FFFF3FCD
:100790002DE9F84F05460C464FF0000A0020009066
:1007A000FE49E068884200D000E000BF00BF95F835
:1007B0005000012802D1022000F050BA012085F833
:1007C000500000BF286802F0E6FB002872D1606884
:1007D00005281AD86068022806D0032807D0042804
:1007E00008D005280DD108E00C2060600CE0122034
:1007F000606009E01820606006E04FF4807060607F
:1008000002E00620606000BF00BF2968D4E9002034
:1008100001F1300CC0F3012B0CEB8B03D3F800C0BB
:1008200000F01F0E4FF01F0B0BFA0EFB2CEA0B0C07
:1008300000F01F0BC2F3846E0EFA0BFE4CEA0E0C96
:10084000C3F800C000BF286802F0A5FB81462868F5
:1008500002F08DFB8046B9F1000F2AD1B8F1000FEC
:10086000FBD1A2682168286802F0ACFB60692968A6
:10087000C968C1F3C101490000FA01F720690428E1
:1008800019D028682268216900F1600C0CEB810303
:10089000D3F800C0DFF808B30CEA0B0C02F0F84BF9
:1008A0004BF0004B4BEA070B4CEA0B0CC3F800C0B3
:1008B00000BFA8E0B9E10021286802F04FFBC0F3B7
:1008C000120030B90021286802F048FBC0F38460B0
:1008D00007E00021286802F041FB90FAA0F0B0FA8E
:1008E00080F02168C1F3120119B92168C1F3846154
:1008F00004E0216891FAA1F1B1FA81F1884204D1B2
:1009000000221146286802F077FB0121286802F0D6
:1009100025FBC0F3120030B90121286802F01EFB4C
:10092000C0F3846007E00121286802F017FB90FA09
:10093000A0F0B0FA80F02168C1F3120119B9216862
:10094000C1F3846104E0216891FAA1F1B1FA81F167
:10095000884204D100220121286802F04DFB0221C7
:10096000286802F0FBFAC0F3120030B902212868AF
:1009700002F0F4FAC0F3846007E00221286802F074
:10098000EDFA90FAA0F0B0FA80F02168C1F31201FC
:1009900019B92168C1F3846104E0216891FAA1F1D9
:1009A000B1FA81F1884204D100220221286802F0C4
:1009B00023FB0321286802F0D1FAC0F3120030B9FA
:1009C0000321286802F0CAFAC0F3846007E003211B
:1009D000286802F0C3FA90FAA0F0B0FA80F021681B
:1009E000C1F3120119B92168C1F3846104E02168DF
:1009F00091FAA1F1B1FA81F1884204D100220321D8
:100A0000286802F0F9FA286802F0BBFA002872D1CF
:100A10002868E2682168D0F8B030C1F3120C23EAEC
:100A20000C0302F0180BDFF87CC12CFA0BFC0CEA6B
:100A3000010C43EA0C03C0F8B03000BF5749E0682E
:100A4000884258D12368C3F312031BB92368C3F348
:100A5000846304E0236893FAA3F3B3FA83F35B1C83
:100A600003F01F03092B3ED82368C3F312031BB9FD
:100A70002368C3F3846304E0236893FAA3F3B3FA0F
:100A800083F35B1C03F01F034FF0010C0CFA03FC13
:100A90002368C3F312031BB92368C3F3846304E020
:100AA000236893FAA3F3B3FA83F35B1C03F01F03E9
:100AB0004CEA836C2368C3F312031BB92368C3F3A6
:100AC000846304E0236893FAA3F3B3FA83F35B1C13
:100AD00003F01F0303EB43034FF0000B4BEA0353F8
:100AE0004CEA03033FE02368C3F3120323B92368EE
:100AF000C3F3846305E03BE0236893FAA3F3B3FAFE
:100B000083F35B1C03F01F034FF0010C0CFA03FC92
:100B10002368C3F312031BB92368C3F3846304E09F
:100B2000236893FAA3F3B3FA83F35B1C03F01F0368
:100B30004CEA836C2368C3F312031BB92368C3F325
:100B4000846304E0236893FAA3F3B3FA83F35B1C92
:100B500003F01F030A3B03EB43034FF0007B4BEA18
:100B600003534CEA03031946A268286802F02AFAE4
:100B70000D492068084070B300BF0C48806800F041
:100B8000E07600BF0A49206888422CD106F40000B4
:100B900048BB0849286888424DD10DE000007F40DD
:100BA00000F0FF03FFFF070000000880000304506F
:100BB000000052C70000045046F40001214802F032
:100BC00015FA214800682149B0FBF1F000EB400024
:100BD0008000009003E016E00098401E009000980E
:100BE0000028F9D127E01A49206888420CD106F084
:100BF000807048B91749286888421CD146F0807136
:100C0000104802F0F3F916E013492068884212D127
:100C100006F4800078B90F49286888420BD146F461
:100C20008001084802F0E2F905E0686D40F020001C
:100C300068654FF0010A00BF002085F8500000BF32
:100C40005046B9E5000304500C010020400D03009C
:100C5000000084CB000004500100008018BCBDE8F7
:100C6000E08F000010B50446012211024FF09040C1
:100C700000F0AFFC14480088401C13490880134959
:100C80002068884218D1124800F002FA1148008802
:100C9000114908600F48408848600E488088886085
:100CA0000C48C088C8600B48008908610948408921
:100CB000486101200949088000224FF480714FF0FB
:100CC000904000F086FC10BD1C0000200000045085
:100CD0000C020020E8010020F40100201800002090
:100CE000704770472DE9F84304464FF00009002093
:100CF000009014B90120BDE8F883206920B12020BC
:100D0000005D012800D100BF606D30B9204600F0C1
:100D1000E7F80020A06584F8500020688168C1F3DE
:100D2000407131B120688168664A1140816000BF1E
:100D300000BF206802F02AF9A0B920688168624AE1
:100D4000114041F08051816000BF604800686049F7
:100D5000B0FBF1F0009002E00098401E0090009877
:100D60000028F9D1206802F011F948B9606D40F00F
:100D700010006065A06D40F00100A0654FF0010912
:100D8000206802F008F90646606D00F010000028A7
:100D90007ED1002EFCD1606D20F4807040F0020006
:100DA0006065206802F0EDF868B94A4802F0E9F899
:100DB00048B960684849896821F47C110143464A72
:100DC000916000BF00BF607E616B41EA4030E16826
:100DD0000843A16808432021095D40EA014520201D
:100DE000005D012803D1A08C401E45EA4045A06A61
:100DF00028B1208D00F47070E16A08430543206833
:100E0000C0683649084028432168C860206802F05D
:100E1000C2F88046206802F0AAF80746B8F1000F31
:100E20002CD127BB207E002141EA803194F830008C
:100E300041EA40052068C06844F202018843284323
:100E40002168C86094F83800012811D1E06B40F0A7
:100E50000101206C0843616C0843A16C08432168C0
:100E6000096940F2FC72914308432168086105E07A
:100E70002068006920F001002168086120690128CC
:100E80000BD12068006B20F00F00E169491E00E0E3
:100E900010E008432168086305E02068006B20F03B
:100EA0000F0021680863606D20F0020040F001002F
:100EB000606505E0606D40F0100060654FF001096D
:100EC000484618E7C0FFFF5FC0FFFF7F0C0100200E
:100ED000400D0300000004500003045007C0F0FF61
:100EE00010B586B00446142101A8FFF7B8F93049BF
:100EF0002068884259D100BF2E48C06C40F4005091
:100F00002C49C8640846C06C00F40050009000BF33
:100F100000BF00BF0846C06C40F00100C86408462E
:100F2000C06C00F00100009000BF00BF00BF084689
:100F3000C06C40F00200C8640846C06C00F00200BB
:100F4000009000BF00BF1E2001900B2002900020E7
:100F5000039001A94FF0904000F05EFA0320019049
:100F60000B2002900020039001A9134800F054FACE
:100F70001248134908600020486000211048816031
:100F8000C1608021016149004161890081612021A6
:100F9000C161C901016200F06BF908B1FFF787FB7D
:100FA00000BF0748E064846200BF06B010BD0000C7
:100FB00000000450001002400004004808000240F5
:100FC000700200202DE9F04104460E4617462068C5
:100FD00001F0E1FF002852D100BF94F85000012831
:100FE00002D10220BDE8F081012084F8500000BF4A
:100FF0002046FFF7CDFA0546002D3BD1606D40F647
:101000000161884340F480706065606D00F4805039
:1010100020B1A06D20F00600A06501E00020A065D1
:101020001848E16CC8621848E16C08631748E16C25
:1010300048631C202168086000BF002084F850002D
:1010400000BF2068406840F01000216848602068B8
:10105000C06840F001002168C860226802F14001C8
:101060003B463246E06C00F089F90546206801F005
:10107000A1FF05E000BF002084F8500000E0022539
:101080002846AFE74B040008FB040008DD04000815
:1010900070B5044600BF94F85000012801D1022029
:1010A00070BD012084F8500000BF03212046FFF7E7
:1010B0003FF905464DBB2068C06820F0010021685B
:1010C000C860E06C90F82500022808D1E06C00F0C0
:1010D00023F805461DB1606D40F040006065206852
:1010E000406820F010002168486025B92046FFF7CD
:1010F0000BFA054602E02046FFF706FA2DB9606DAF
:1011000020F4885040F00100606500BF002084F8A2
:10111000500000BF2846C3E70146002291F8250091
:10112000022808D00420C86300BF002081F82400F2
:1011300000BF012070470868006820F00E000B68AF
:1011400018600868006820F001000B68186091F8CA
:10115000440000F01C03012098400B6C58600120F3
:1011600081F8250000BF002081F8240000BF104650
:10117000E0E770B50446206C05682068066894F8BE
:10118000440000F01C01042088402840E0B106F033
:101190000400C8B12068006800F0200028B9206869
:1011A000006820F004002168086094F8440000F012
:1011B0001C0104208840216C4860206B002856D018
:1011C0002046216B884752E094F8440000F01C014F
:1011D00002208840284018B306F0020000B32068BF
:1011E000006800F0200040B92068006820F00A0084
:1011F00021680860012084F8250094F8440000F07C
:101200001C0102208840216C486000BF002084F847
:10121000240000BFE06A50B32046E16A884726E018
:1012200094F8440000F01C01082088402840F0B1E8
:1012300006F00800D8B12068006820F00E00216890
:10124000086094F8440000F01C0101208840216CE3
:1012500048600120E06384F8250000BF002084F886
:10126000240000BF606B10B12046616B884770BDE1
:1012700010B5014609B9012010BD3E4B08689842DF
:101280000BD23D4B0868C01A1423B0FBF3F080006A
:1012900048643948083808640AE0364B0868C01AC0
:1012A0001423B0FBF3F08000486432480838086427
:1012B000022081F825000868026847F6F070824332
:1012C000D1E9020318430B6918434B6918438B6932
:1012D0001843CB6918430B6A18430243086802603D
:1012E0008868B0F5804F3AD0234B083B086C984291
:1012F0001BD1D0F8A80091F8443003F01C040F2350
:10130000A34098431C4BA033186091F8443003F07D
:101310001C0348689840184B083BD3F8A830184382
:10132000154B083BC3F8A80019E01248A03000682C
:1013300091F8443003F01C040F23A34098430D4B55
:10134000A033186091F8443003F01C0348689840BB
:10135000084BA0331B681843064BA03318600020CD
:10136000C863012081F82500002081F8240000BF17
:1013700082E7000008040240080002402DE9F04125
:1013800004460D4616461F464FF0000800BF94F86D
:101390002400012802D10220BDE8F081012084F858
:1013A000240000BF94F8250001282CD1022084F8E5
:1013B00025000020E0632068006820F0010021681B
:1013C00008603B46324629462046FFF757F9206B16
:1013D00030B12068006840F00E00216808600BE022
:1013E0002068006820F00400216808602068006818
:1013F00040F00A00216808602068006840F00100A1
:101400002168086006E000BF002084F8240000BFC7
:101410004FF002084046BFE778B503460022C1E01E
:10142000012696400D6805EA0604002C72D04D682E
:10143000022D02D04D68122D13D1D60803F12005DC
:1014400055F826005507EE0E0F25B540A843560760
:10145000F60E0D69B5402843D60803F1200545F87E
:101460002600186856000325B540A8430D7905F0FD
:1014700003055600B540284318604D68012D08D07B
:101480004D68022D05D04D68112D02D04D68122DEA
:1014900013D1986856000325B540A8435600CD687F
:1014A000B54028439860586801259540A8430D79B8
:1014B000C5F30015954028435860D86856000325A9
:1014C000B540A84356008D68B5402843D8604D68A4
:1014D00005F08055B5F1805F63D100BF344D2D6EAE
:1014E00045F00105324E356635462D6E05F0010595
:1014F000009500BF00BF4FEAB635960855F82600A4
:1015000095072E0F0F25B540A843B3F1904F02D198
:1015100000250BE045E0274DAB4201D1012505E058
:10152000254DAB4201D1022500E007259607360F75
:10153000B5402843214D960845F82600204D2868DF
:10154000A0434D6805F48035B5F5803F00D12043B8
:101550001B4D28602D1D2868A0434D6805F40035FB
:10156000B5F5003F00D12043154D2D1D28602D1DE0
:101570002868A0434D6805F48015B5F5801F00D19B
:1015800020430F4D083528602D1D2868A0434D6865
:1015900005F40015B5F5001F00D12043084D0C35AA
:1015A0002860521C0D68D540002D7FF439AF78BDFE
:1015B00000100240000400480008004808000140F4
:1015C0000004014042690A400AB1816200E0816181
:1015D00070470AB1816100E081627047014800688C
:1015E00070470000000100200348006803490968B3
:1015F00008440149086070470001002008010020EC
:1016000010B50024032000F0A9F8002000F008F82D
:1016100008B1012401E000F02FF8204610BD0000C1
:1016200070B50446002511480068D8B10F4800681D
:101630004FF47A71B1FBF0F00D490968B1FBF0F697
:10164000304601F0D1FB58B9102C07D200222146B8
:10165000501E00F041F80748046004E0012502E054
:10166000012500E00125284670BD0000080100208A
:101670000C0100200401002008B500BF0D48006ED9
:1016800040F001000B4908660846006E00F00100BA
:10169000009000BF00BF00BF0846806D40F0805042
:1016A00088650846806D00F08050009000BF00BF44
:1016B00008BD00000010024001460846002809DB72
:1016C00000F01F0301229A4043099B0003F1E0232D
:1016D000C3F8002100BF70472DE9F05F80460D463A
:1016E0001646002704F09CFC074639462A46334636
:1016F00001F00700C0F1070ABAF1040F02D94FF058
:10170000040A01E0C0F1070AD14600F1040ABAF167
:10171000070F02D24FF0000A01E0A0F1030AD446FD
:101720004FF0010A0AFA09FAAAF1010A0AEA020AC2
:101730000AFA0CFA4FF0010B0BFA0CFBABF1010BA0
:101740000BEA030B4AEA0B042146404604F070FC06
:1017500000F000B830BCBDE8C09F000000BF00F042
:101760000702064B19684FF6FF031940044B0B4361
:1017700043EA0221014B196000BF70470CED00E005
:101780000000FA05024611680120C2F86802002034
:1017900082F8600231F8540F40F001000880088898
:1017A00040F0020021F8540900207047704770B5DE
:1017B00005460C4604F08000802806D104F0070698
:1017C00005F1280000EB461103E005F5947000EBED
:1017D00044111AB900200873CB8004E0012008737B
:1017E0000B81180C4881002070BD70B504460D4671
:1017F00004F1280101EB45114A692946D4F8700229
:1018000003F00FF870BD70B504460D4604F59471F1
:1018100001EB45114A692946D4F8700203F081F8BA
:1018200070BD70B504460E4606F08000802808D1D1
:1018300006F0070104F1280000EB41150120687053
:1018400007E006F0070104F5947000EB4115002055
:10185000687006F00700287000BF94F8280201287D
:1018600001D1022070BD012084F8280200BF294662
:10187000206803F05EFF00BF002084F8280200BF4C
:1018800000BFEFE770B504460E4606F00F00616832
:10189000884201D9012070BD06F08000802808D15F
:1018A00006F0070104F1280000EB411501206870E3
:1018B00007E006F0070104F5947000EB41150020E5
:1018C00068700020A87006F00700287000BF94F828
:1018D0002802012801D10220DDE7012084F8280236
:1018E00000BF2946206804F090F800BF002084F86B
:1018F000280200BF00BFCEE72DE9F04705460E469F
:1019000090461F464FF0000906F08000802808D15D
:1019100006F0070105F1280000EB4114012060707A
:1019200007E006F0070105F5947000EB4114002074
:10193000607006F007002070C4F81080E7706078CF
:1019400008B12078E081022F01D10020207100BF72
:1019500095F82802012802D10220BDE8F087012075
:1019600085F8280200BF2146286803F09BFC00BFD1
:10197000002085F8280200BF4846EEE72DE9F04137
:1019800005460E461746984606F0070105F5947081
:1019900000EB41146761C4F818800020E0616070BA
:1019A00006F00700207006F0070020B921462868DD
:1019B00004F0C6F803E02146286804F0C1F80020CE
:1019C000BDE8F08170B504460D4605F0070061687A
:1019D000884201D9012070BD05F08000802808D11F
:1019E00005F0070104F1280000EB4116012070709A
:1019F00005E004F5947000EB45160020707001209E
:101A0000B07005F00700307000BF94F8280201287C
:101A100001D10220DFE7012084F8280200BF31460F
:101A2000206804F05FF805F0070020B904F50C7198
:101A3000206803F0E7FF00BF002084F8280200BF01
:101A400000BFC8E72DE9F04105460E461746984607
:101A500006F0070105F1280000EB41146761C4F8A6
:101A600018800020E0610120607006F007002070FF
:101A700006F0070020B92146286804F061F803E069
:101A80002146286804F05CF80020BDE8F08110B51C
:101A90000446206804F070FA00F40040B0F5004FEE
:101AA00002D1204601F057FC206804F065FA00F4EA
:101AB0008060B0F5806F0ED12068B0F8440020F44B
:101AC00080602168A1F84400204600F095F90021CB
:101AD000204600F0BEF9206804F04EFA00F4804081
:101AE000B0F5804F07D12068B0F8440020F4804062
:101AF0002168A1F84400206804F03EFA00F4005088
:101B0000B0F5005F07D12068B0F8440020F4005021
:101B10002168A1F84400206804F02EFA00F48050F7
:101B2000B0F5805F27D12068B0F840004FF6FB7118
:101B300008402168A1F840002068B0F840004FF646
:101B4000F77108402168A1F8400094F8600201286C
:101B500006D1002084F8600200212046FFF726FE0F
:101B6000204600F05BF92068B0F8440020F4805073
:101B70002168A1F84400206804F0FEF900F4006038
:101B8000B0F5006F20D12068B0F8400040F00800A8
:101B90002168A1F840002068B0F8440020F40060FB
:101BA0002168A1F844002068B0F8400040F004002B
:101BB0002168A1F84000206804F0DEF9C0F300308D
:101BC00010B9204600F084F9206804F0D5F900F03F
:101BD000800080282DD12068B0F8440020F08000DB
:101BE0002168A1F8440094F86002F8B92068B0F8C0
:101BF000400040F004002168A1F840002068B0F8DF
:101C0000400040F008002168A1F84000012084F85D
:101C100060022068B0F8540000F0F0008008C4F8BA
:101C2000640201212046FFF7C1FD02E0204600F0DA
:101C30004FF9206804F0A0F900F40070B0F5007FBF
:101C40000AD12068B0F8440020F400702168A1F89F
:101C50004400204600F0F6F8206804F08DF900F406
:101C60008070B0F5807F07D12068B0F8440020F480
:101C700080702168A1F8440010BD30B585B00446DD
:101C800014B9012005B030BD94F8290228B900200C
:101C900084F82802204600F08DF8032084F82902F9
:101CA000206803F0A5FE142204F110016846FEF737
:101CB000BDFA94E80F0003F038FD20B1022084F84B
:101CC00029020120DEE70021206804F07CF90025CC
:101CD00026E0012104F1280000EB4510417004F1D9
:101CE000280000EB4510057004F1280000EB4510BA
:101CF000C581002104F1280000EB4510C17004F1FA
:101D0000280000EB4510016104F1280000EB4510AC
:101D1000416104F1280000EB45108161681CC5B2E7
:101D20006068A842D5D8002520E0002104F5947011
:101D300000EB4510417004F5947000EB4510057000
:101D400004F5947000EB4510C17004F5947000EB3D
:101D50004510016104F5947000EB4510416104F5F4
:101D6000947000EB45108161681CC5B26068A842A0
:101D7000DBD8142204F110016846FEF757FA94E804
:101D80000F0003F026FE20B1022084F82902012072
:101D900078E7002084F82400012084F82902E06913
:101DA000012802D12046FFF7EDFC206803F008FE71
:101DB000002067E738B504460D492068884215D1F0
:101DC00000BF0C48806D40F080600A498865084675
:101DD000806D00F08060009000BF00BF00221146BF
:101DE0004320FFF779FC4320FFF766FC38BD000075
:101DF000006800400010024070B504460125A0684C
:101E0000022801D0FEF753FC2946D4F8700202F0F4
:101E1000D9FED4F8700202F08FFE70BD10B50446F2
:101E2000A06938B10648006820F00600044908603F
:101E300001F070FDD4F8700202F0ACFE10BD00009D
:101E400010ED00E010B50446D4F8700202F0A9FECF
:101E500010BD70B504460D4600BF94F82802012855
:101E600001D1022070BD012084F8280200BF84F84F
:101E700024502946206804F0A9F800BF002084F807
:101E8000280200BF00BFEDE710B5044604F50C7151
:101E9000D4F8700202F0BCFE10BD10B5044600BFBD
:101EA00094F82802012801D1022010BD012084F8F5
:101EB000280200BF206803F07AFD206804F04AF889
:101EC00000BF002084F8280200BF00BFEDE700003B
:101ED00010B50446D4F8700202F011FFA06928B1D1
:101EE0000348006840F006000149086010BD00008A
:101EF00010ED00E00246B2F5007F2AD11D480068CF
:101F000000F4C060B0F5007F32D01A48006820F4B9
:101F1000C06040F40070174B186017480068322307
:101F20005843164BB0FBF3F0411C00E0491E11482A
:101F3000406900F48060B0F5806F01D10029F5D1CF
:101F40000C48406900F48060B0F5806F10D1032028
:101F500070470848006800F4C060B0F5806F07D093
:101F60000448006820F4C06040F48060014B1860B1
:101F70000020EDE7007000400C01002040420F00FF
:101F80000348406840F480600149486070470000A1
:101F9000007000400248006800F4C0607047000014
:101FA000007000402DE9F84304460025A84620882B
:101FB00000F40060B0F5006F26D1E06B68B1B0F5B9
:101FC000000F03D0B0F5400F0ED10CE0C648C0683A
:101FD00040F48030C449C86008E00021201D01F0B1
:101FE0007BFB054602E001E0012500BF00BF55B9BB
:101FF000BD488830006820F44000E16B0843BA49CE
:10200000C1F8880000E0A846206800F40030B0F570
:10201000003F75D14FF00009B348806D012121EADE
:10202000107078B100BFB048806D40F08050AE496C
:1020300088650846806D00F08050009000BF00BFAA
:102040004FF00109A948006840F48070A749086072
:10205000FFF7C4FA074606E0FFF7C0FAC01B0228E4
:1020600001D9032505E0A148006800F4807000282C
:10207000F2D000BF7DBB9C489030006800F44076F1
:10208000CEB1206DB04216D097489030006820F451
:1020900040769548D0F8900040F480309249C1F8DD
:1020A00090000846D0F8900020F48030C1F89000ED
:1020B0000846C0F8906006F00100A8B1FFF78EFA5C
:1020C000074609E0FFF78AFAC01B41F288318842CF
:1020D00002D9032507E016E083489030006800F03D
:1020E00002000028EED000BF5DB97F489030006844
:1020F00020F44070216D08437B49C1F8900003E053
:102100000CE0A84600E0A846B9F1010F05D17648D9
:10211000806D20F080507449886500BF207800F001
:10212000010048B170488830006820F00300216A3F
:1021300008436D49C1F88800207800F002000228A9
:1021400009D169488830006820F00C00616A0843B2
:102150006549C1F88800207800F02000202809D1C6
:1021600061488830006820F44060A16A08435E49F5
:10217000C1F88800208800F40070B0F5007F09D114
:1021800059488830006820F44020616B0843564964
:10219000C1F88800208800F48060B0F5806F09D114
:1021A00051488830006820F44010A16B08434E4924
:1021B000C1F88800207800F04000402809D14A4842
:1021C0008830006820F44050E16A08434649C1F86D
:1021D0008800208800F48070B0F5807F09D14248E3
:1021E0008830006820F44030216B08433E49C1F834
:1021F0008800208800F40050B0F5005F1FD13A48F5
:102200008830006820F04060216C084336498831EE
:102210000860206CB0F1006F06D13348C06840F40C
:1022200080103149C8600AE0206CB0F1806F06D19F
:102230000121201D01F050FA054605B1A84620688D
:1022400000F48020B0F5802F1FD127488830006827
:1022500020F04060616C0843234988310860606C5D
:10226000B0F1006F06D12048C06840F480101E49CC
:10227000C8600AE0606CB0F1806F06D10121201DBA
:1022800001F02AFA054605B1A846208800F48040EE
:10229000B0F5804F14D114488830006820F04050C9
:1022A000A16C0843104988310860A06CB0F1805FD0
:1022B00006D10221201D01F00FFA054605B1A846FE
:1022C000208800F40040B0F5004F09D1064888305E
:1022D000006820F08040E16C08430349C1F88800A1
:1022E0004046BDE8F8830000001002400070004046
:1022F0002DE9F04104460D4614B90120BDE8F081F6
:102300005548006800F00700A8420ED25248006805
:1023100020F007002843504908600846006800F094
:102320000700A84201D00120E8E7207800F0010072
:10233000002840D06068032806D14848006800F0B3
:102340000070D8B90120D9E76068022806D1434857
:10235000006800F4003088B90120CFE7606830B928
:102360003E48006800F0020040B90120C6E73B4843
:10237000006800F4806008B90120BFE73748806832
:1023800020F003006168084334498860FFF726F9AC
:10239000064608E0FFF722F9801B41F288318842A7
:1023A00001D90320AAE72D48806800F00C0061687D
:1023B000B0EB810FEED1207800F00200022807D1A7
:1023C0002648806820F0F000A1680843234988600F
:1023D0002148006800F00700A8420ED91E48006896
:1023E00020F0070028431C4908600846006800F0F8
:1023F0000700A84201D0012080E7207800F0040007
:10240000042807D11548806820F4E060E16808439B
:1024100012498860207800F00800082808D10F4889
:10242000806820F46050216940EAC1000B4988604F
:1024300000F046F809498968C1F30311084A515C64
:1024400001F01F01C8400749086007480068FFF70E
:10245000E7F80746384651E70020024000100240E6
:102460008C6200080C010020040100200148006873
:10247000704700000C01002000B5FFF7F7FF054989
:102480008968C1F30221044A515C01F01F01C84070
:1024900000BD0000001002409C62000800B5FFF77C
:1024A000E5FF05498968C1F3C221044A515C01F086
:1024B0001F01C84000BD0000001002409C620008DF
:1024C000F0B500230020DFF8D4C0DCF808C00CF021
:1024D0000C01DFF8C8C0DCF80CC00CF0030719B120
:1024E0000C291ED1012F1CD1DFF8B0C0DCF800C0D0
:1024F0000CF0080CBCF1000F06D1DFF8A0C0DCF82E
:1025000094C0CCF3032305E0DFF890C0DCF800C0F2
:10251000CCF30313DFF888C05CF8233041B91846C8
:1025200006E0042901D11F4802E0082900D11E4815
:102530000C2932D1DFF864C0DCF80CC00CF00304C5
:10254000012C09D0022C02D0032C04D101E0154A41
:1025500004E0154A02E000BF1A4600BF00BFDFF8E2
:102560003CC0DCF80CC0CCF3021C0CF10106DFF817
:102570002CC0DCF80CC0CCF3062C0CFB02FCBCFB22
:10258000F6F2DFF818C0DCF80CC0CCF3416C0CF1AB
:10259000010C4FEA4C05B2FBF5F0F0BD0010024013
:1025A000A46200080024F40000127A002DE9F84328
:1025B000044614B90120BDE8F883F948806800F0AA
:1025C0000C07F748C06800F00306207800F0100000
:1025D000102876D11FB10C2F75D1012E73D1F04880
:1025E000006800F0020018B1A06908B90120E2E714
:1025F000EB48216A006800F0080020B1E848006854
:1026000000F0F00005E0E6489430006800F47060E7
:10261000000981421FD9206A01F022F908B1012086
:10262000C9E700BFDE48006840F00800DC490860E8
:102630000846006820F0F000216A0843D849086085
:1026400000BF0846406820F47F40E16940EA01206D
:10265000D34948601EE000BFD148006840F0080040
:10266000CF4908600846006820F0F000216A08435E
:10267000CB49086000BF0846406820F47F40E1690C
:1026800040EA0120C6494860206A01F0E9F808B133
:10269000012090E7FFF714FFC1498968C1F30311D6
:1026A000C04A515C01F01F01C840BF490860BF48E3
:1026B0000068FEF7B5FF8046B8F1000F4ED04046E7
:1026C00079E74BE0FFE7A06980B3B548006840F0C8
:1026D0000100B3490860FEF781FF054606E0FEF7FA
:1026E0007DFF401B022801D9032064E7AC48006845
:1026F00000F002000028F2D000BFA948006840F0B6
:102700000800A74908600846006820F0F000216A28
:102710000843A349086000BF0846406820F47F4092
:10272000E16940EA01209E49486017E0FFE79C48C4
:10273000006820F001009A490860FEF74FFF054647
:1027400006E0FEF74BFF401B022801D9032032E7C9
:102750009348006800F002000028F2D1207800F0D1
:10276000010000285CD0082F03D00C2F0AD1032EC3
:1027700008D18B48006800F4003088B3606878BBEB
:10278000012018E700BF6068B0F5803F06D184489B
:10279000006840F48030824908601AE06068B0F553
:1027A000A02F0BD17E48006840F480207C4908604F
:1027B0000846006840F4803008600AE07848006805
:1027C00020F48030764908600846006820F48020B4
:1027D000086000BF606890B1FEF700FF054607E0A3
:1027E0001EE0FEF7FBFE401B642801D90320E2E651
:1027F0006B48006800F400300028F2D010E0FEF7CB
:10280000EDFE054606E0FEF7E9FE401B642801D90F
:102810000320D0E66248006800F400300028F2D1BE
:10282000207800F00200022852D1042F03D00C2F90
:1028300014D1022E12D15A48006800F4806018B1F9
:10284000E06808B90120B6E65548406820F0F85025
:10285000217C40EA01605249486039E0E06800B3F9
:102860004F48006840F480704D490860FEF7B6FE9E
:10287000054606E0FEF7B2FE401B022801D9032000
:1028800099E64748006800F480600028F2D0444888
:10289000406820F0F850217C40EA016040494860DF
:1028A00016E03F48006820F480703D490860FEF75C
:1028B00095FE054606E0FEF791FE401B022801D971
:1028C000032078E63648006800F480600028F2D1E2
:1028D000207800F00800082836D16069D0B130486F
:1028E0009430006840F001002D49C1F89400FEF7D3
:1028F00075FE054606E0FEF771FE401B022801D971
:10290000032058E626489430006800F002000028B2
:10291000F1D019E022489430006820F001002049ED
:10292000C1F89400FEF75AFE054606E0FEF756FE93
:10293000401B022801D903203DE619489430006865
:1029400000F002000028F1D1207800F004000428F3
:1029500073D14FF000091248806D00F0805078B9B3
:1029600000BF0F48806D40F080500D4988650846D3
:10297000806D00F08050009000BF00BF4FF0010953
:102980000B48006800F4807008BB0948006840F4F8
:10299000807007490860FEF721FE054611E000003F
:1029A000001002408C6200080C010020040100208D
:1029B00000700040FEF712FE401B022801D90320E0
:1029C000F9E5B748006800F480700028F2D000BF35
:1029D000A068012808D1B348006840F00100B1495F
:1029E0009039C1F8900021E0A06805280FD1AD48CA
:1029F000006840F00400AB499039C1F890000846E7
:102A0000D0F8900040F00100C1F890000EE0A54819
:102A1000006820F00100A3499039C1F890000846F1
:102A2000D0F8900020F00400C1F8900000BFA0682A
:102A3000A0B1FEF7D3FD054609E02EE0FEF7CEFD7E
:102A4000401B41F28831884201D90320B3E5954803
:102A5000006800F002000028F0D012E0FEF7BEFD92
:102A6000054608E0FEF7BAFD401B41F28831884276
:102A700001D903209FE58B48006800F00200002880
:102A8000F0D1B9F1010F07D186489038806D20F060
:102A9000805084499039886500BF207800F020007C
:102AA000202838D1606AD8B17E480830006840F0EC
:102AB00001007C499039C1F89800FEF78FFD05466A
:102AC00006E0FEF78BFD401B022801D9032072E5CA
:102AD00074480830006800F002000028F1D01AE0C5
:102AE00070480830006820F001006E499039C1F844
:102AF0009800FEF773FD054606E0FEF76FFD401BEC
:102B0000022801D9032056E566480830006800F025
:102B100002000028F1D1A06A00285BD00C2F78D0E9
:102B2000A06A022857D15F489038006820F0807072
:102B30005C4990390860FEF751FD054606E0FEF756
:102B40004DFD401B022801D9032034E5554890383B
:102B5000006800F000700028F1D1D4E90B10401E8D
:102B600041EA0011606B41EA0021A08F0122C2EB13
:102B7000500041EA40514020005DC2EB500041EA64
:102B800040613820005D41EAC06046499039C9681B
:102B9000454A1140084343499039C86008460068D7
:102BA00040F0807008600846C06840F08070C860DF
:102BB000FEF714FD054606E0FEF710FD401B022857
:102BC00001D90320F7E437489038006800F000701E
:102BD0000028F1D061E033489038006820F0807020
:102BE0003049903908600846006800F0006020B95C
:102BF0000846C06820F00300C8602A489038C068C2
:102C00002A49084027499039C860FEF7E7FC054685
:102C100007E00EE0FEF7E2FC401B022801D903208A
:102C2000C9E420489038006800F000700028F1D115
:102C300033E0A06A012800D1BDE41A489038C66884
:102C400006F00301E06A814225D106F07001206B95
:102C5000401EB1EB001F1ED106F4FE41606BB1EBCC
:102C6000002F18D106F078413820005DB1EBC06F1D
:102C700011D106F4C001A08F0122C2EB5000B1EBCC
:102C8000405F08D106F0C0614020005DC2EB5000FB
:102C9000B1EB406F01D001208DE400208BE40000F7
:102CA00000700040901002408C809D01FFFFEEFEFE
:102CB00070B504460CB9012070BD606A00B900BF50
:102CC0000021A16294F85D0028B9002084F85C001E
:102CD000204600F04DF8022084F85D00206800686E
:102CE00020F0400021680860E068B0F5E06F01D98D
:102CF000002501E04FF48055E068B0F5706F05D015
:102D0000E068B0F5E06F01D00021A162206B40B90E
:102D1000E068B0F5E06F02D90221216301E00121F2
:102D20002163D4E90101084321690843616908432B
:102D3000218B01F400710843E1690843216A0843CB
:102D4000A16A0843216808600421A06901EA1040D3
:102D5000616A0843616B0843E168084328432168BE
:102D6000486000202066012084F85D000020A3E771
:102D700010B586B00446142101A8FDF770FA184971
:102D80002068884229D100BF1648006E40F4805068
:102D9000144908660846006E00F48050009000BF99
:102DA00000BF00BF0846C06C40F00100C864084680
:102DB000C06C00F00100009000BF00BFE020019057
:102DC000022002900020039003200490052005902B
:102DD00001A94FF09040FEF71FFB06B010BD0000A8
:102DE000003001400010024070B504462546681EC0
:102DF000B0F1807F01D301200FE0681E4FF0E02189
:102E000048610F214FF0FF3003F012F900204FF01E
:102E1000E021886107200861002070BD10B50446DC
:102E20000CB9012010BDA06900B100E000BF606FC7
:102E300028B9002084F87000204600F029F82420EA
:102E400060672068006820F0010021680860204663
:102E500000F09CFE012800D1E4E7606A10B1204632
:102E600000F0E0FD2068406820F490402168486050
:102E70002068806820F02A00216888602068006847
:102E800040F0010021680860204600F047FEC9E7D5
:102E900010B586B00446142101A8FDF7E0F91749E2
:102EA0002068884228D100BF1548006E40F4804059
:102EB000134908660846006E00F48040009000BF89
:102EC00000BF00BF0846C06C40F00200C86408465E
:102ED000C06C00F00200009000BF00BFD82001903D
:102EE0000220029000200390032004900720059008
:102EF00001A90448FEF790FA06B010BD0038014061
:102F0000001002400004004800BFFEE730B50B4649
:102F1000002100BF16E00A24B4EB107F05D930244D
:102F200004EB107403F8114005E0412404EB107425
:102F30000A3C03F81140000100254C00641C1D559B
:102F40004C1CE1B29142E6DB30BD00008168024AD0
:102F50001140491C81607047C0FFFF7F024602F1AB
:102F6000600000EB8103186800F0F84070470146EC
:102F70008868C0F3C000704701468868C0F340000D
:102F800070470146886800F0010070470146886874
:102F9000C0F30070704701468868C0F38000704736
:102FA0000146C86800F4406008B90120704700205D
:102FB000FCE700008168024A1140091D81607047EA
:102FC000C0FFFF7F70B500F11404C1F3406504EB4E
:102FD00085031C68C1F304560725B540AC43C1F313
:102FE000045502FA05F52C431C6070BD826822F07E
:102FF000E0720A438260704710B500F1600404EB90
:1030000081031C6824F0004414431C6010BD0000C0
:1030100000B587B0182101A8FDF721F939483A49D0
:1030200008604FF400304860002137488160C1607B
:1030300001210161042141610021017601214176D4
:103040000621C161002180F820108162C162012146
:1030500080F830100021416380F83810FDF742FEFF
:1030600008B1FDF724FB29480190062002900220B8
:1030700003907F200490042005900020069001A971
:103080002148FDF785FB08B1FDF711FB20480190B1
:103090000C20029001A91C48FDF77AFB08B1FDF74E
:1030A00006FB1C4801901220029001A91648FDF76A
:1030B0006FFB08B1FDF7FBFA17480190182002904A
:1030C00001A91148FDF764FB08B1FDF7F0FA1348B8
:1030D00001904FF48070029001A90B48FDF758FB56
:1030E00008B1FDF7E4FA0E4801904FF483700290A6
:1030F00001A90548FDF74CFB08B1FDF7D8FA07B068
:1031000000BD0000000004500C0200204000201907
:103110008000501D000180210002B0250080F03E9B
:103120000000214308B500BF0A48806C40F0010050
:10313000084988640846806C00F00100009000BFD8
:1031400000BF002211460B20FEF7C6FA0B20FEF747
:10315000B3FA08BD0010024000B587B0142102A8E0
:10316000FDF77DF800BF3E48C06C40F004003C49CC
:10317000C8640846C06C00F00400019000BF00BFA6
:1031800000BF0846C06C40F00100C8640846C06C2F
:1031900000F00100019000BF00BF00BF0846C06CF6
:1031A00040F00200C8640846C06C00F002000190C4
:1031B00000BF00BF00BF0846C06C40F08000C8647C
:1031C0000846C06C00F08000019000BF00BF0022E4
:1031D0004FF440412348FEF7FCF900224FF4074129
:1031E0004FF09040FEF7F5F9002220211E48FEF72F
:1031F000F0F9002208211D48FEF7EBF94FF440409A
:1032000002900120039000200490059002A9154827
:10321000FEF702F94FF407400290012003900020CE
:103220000490059002A94FF09040FEF7F5F8202099
:1032300002900120039000200490059002A90A4802
:10324000FEF7EAF808200290012003900020049085
:10325000059002A90548FEF7DFF807B000BD0000A1
:10326000001002400008004800040048001C00480C
:1032700010B51148114908604FF482704860002170
:103280000E4881604FF44071C160002101614161CD
:103290004FF4007181610021C1610162416281626C
:1032A0000721C1620021016308214163FFF700FD8E
:1032B00008B1FDF7FCF910BD00300140B802002054
:1032C00010B50E480E4908604FF4E1304860002107
:1032D0000B488160C16001610C21416189018161FC
:1032E0000021C16101620020054948620846FFF7DC
:1032F00095FD08B1FDF7DBF910BD00000038014075
:103300001C03002010B500220D490E4801F02CFAD4
:1033100008B1FDF7CCF90C490A4801F03FFD08B1AE
:10332000FDF7C5F90949074800F0E9FE08B1FDF7C6
:10333000BEF9044801F0FCFD08B1FDF7B8F910BD75
:103340002C0000206404002014010020EC00002068
:1033500000BFFEE770472DE9F0470546B1E1286858
:10336000B0F8449009F00F06002E7ED109F010004D
:10337000A8BB00BF2968098848F60F7201EA02005D
:1033800040F400412A68118000BF05F12804286834
:10339000B0F85010207801EBC000801C296801F5BE
:1033A0008061405AC0F30900E061E1696069084446
:1033B000606100212846FEF718FA95F824000028DD
:1033C000CCD0A0690028C9D195F8240040F0800035
:1033D0002968A1F84C00002085F8240071E1FFE77E
:1033E00005F594742868B0F8008008F4006028B3EC
:1033F0002868B0F85010207801EBC000801D2968C3
:1034000001F58061405AC0F30900E061A18B8BB2E5
:10341000E28805F50C71286802F0B2FD00BF29684A
:10342000098840F68F7201EA020040F080012A68A4
:10343000118000BF2846FEF727FD42E108F4004056
:1034400000288BD000BF2968098840F68F7201EAF6
:10345000020040F080012A68118000BF2868B0F89F
:103460005010207801EBC00000E061E0801D296869
:1034700001F58061405AC0F30900E061E06990B154
:10348000606980B1B4F81CC01FFA8CF3E2886169EE
:10349000286802F075FDE1696069084460610021F7
:1034A0002846FEF7B0F900BF2A682968B1F8501025
:1034B0000A4402F20641084600BF236953B9038853
:1034C00048F2FF3C03EA0C030380038843F4004303
:1034D000038019E023693E2B0DD200BF23695908F0
:1034E000237C03F0010303B1491C4FF6FF7303EA89
:1034F0008123038008E000BF236959094FF400438A
:1035000043EA8123038000BF00BF00BF00BF2968DA
:1035100009884BF68F7201EA020080F4805080F433
:10352000005040F4004141F080012A681180C8E059
:103530007100286830F8118008F4004000287ED01F
:1035400000BF7200296831F8121040F68F7201EA4C
:10355000020040F0800173002A6822F8131000BFB7
:1035600005F5947000EB4614207BA8B92868B0F8E4
:103570005010207801EBC000801D296801F58061A2
:10358000405AC0F30907002F4DD0E28861693B46DD
:10359000286802F0F5FC46E021784900286830F8F8
:1035A000110000F48040A0B12868B0F850102078D5
:1035B00001EBC000801C296801F58061405AC0F30E
:1035C0000907D7B1228961693B46286802F0D8FC17
:1035D00013E02868B0F85010207801EBC000801D7F
:1035E000296801F58061405AC0F309072FB162894B
:1035F00061693B46286802F0C3FC00BF00BF227827
:103600005200296831F8121048F68F7201EA020060
:1036100040F4004141F0C00123785B002A6822F8A1
:10362000131000BF00BFE0693844E06160693844AE
:103630006061A06910B12069B84206D900E00AE0D3
:1036400021782846FEF7DFF805E021782846D4E9FE
:103650000523FEF793F908F0800058B305F1280020
:1036600000EB461400BF7200296831F8121048F6CA
:103670000F7201EA020040F4004173002A6822F848
:10368000131000BF2868B0F85010207801EBC0007C
:10369000801C296801F58061405AC0F30900E0618F
:1036A000E169606908446061A06920B92178284611
:1036B000FEF79BF805E021782846D4E90523FEF7BC
:1036C000C1F92868B0F8440000F4004000287FF4F5
:1036D00046AEBDE8F08770472DE9F04104460F463D
:1036E00000255B48C06800F0030090B15848C068EE
:1036F00000F003002168884209D1206838B154489D
:10370000C068C0F30210401C6168884233D00125B4
:1037100031E02068012804D0022809D003281AD1FA
:103720000DE04B48006800F0020000B9012514E0EC
:103730004748006800F4806000B901250DE0444866
:10374000006800F4003028B94148006800F4802087
:1037500000B9012501E0012500BF00BF5DB9D4E932
:103760000010401E41EA00103949C96821F0730178
:1037700008433749C860002D67D13548006820F0FC
:10378000806033490860FDF729FF064606E0FDF733
:1037900025FF801B022801D9032505E02C4800687D
:1037A00000F000600028F2D100BFC5BB67B9A06877
:1037B0000002217B40EAC16025490969254A114080
:1037C00008432349086120E0012F0FD1A0680002BF
:1037D000218A0122C2EB510140EA41501C4909698A
:1037E0001D4A114008431A4908610EE0A068000212
:1037F000217D0122C2EB510140EA4160144909696F
:10380000164A11400843124908611148006840F007
:1038100080600F490860FDF7E1FE064607E014E00E
:10382000FDF7DCFE801B022801D9032505E00848CE
:10383000006800F000600028F2D000BF2DB90448F5
:103840000069A1690843024908612846BDE8F08182
:1038500000100240FF80FF07FF809FFFFF80FFF9FD
:10386000F8B5044600262348806D00F0805018B15A
:10387000FEF790FB054616E000BF1E48806D40F045
:1038800080501C4988650846806D00F0805000908B
:1038900000BF00BFFEF77EFB05461648806D20F096
:1038A000805014498865B5F5007F07D1802C10D968
:1038B000A02C01D902260CE001260AE0802C01D9B7
:1038C000032606E0802C01D1022602E0702C00D1F4
:1038D00001260948006820F00700304306490860C7
:1038E0000846006800F00700B04201D00120F8BD92
:1038F0000020FCE70010024000200240704700005A
:1039000010B5012002490860FDF76EFE10BD0000F1
:10391000FC00002010B500F001F810BD00B5ABB000
:1039200044211AA8FCF79BFC142115A8FCF797FC6E
:1039300054216846FCF793FC01201A904FF4A02014
:103940001B900220249003211AA8C1620221016366
:1039500028214163072181630221C1630164FEF7CD
:1039600025FE08B1FCF7A3FE0F201590032016904A
:103970000020179018901990042115A8FEF7B8FCA4
:1039800008B1FCF794FE46F2010000900020089078
:103990004FF080501290801010900320019002216F
:1039A00002911821039107210491022105910691AA
:1039B0004FF0887107916846FEF7F4FA08B1FCF7FA
:1039C00076FE4FF40070FEF795FA08B1FCF76FFE33
:1039D0002BB000BD1048006840F470000E4908602C
:1039E0000E48006840F001000C4908600020886023
:1039F000084600680A490840084908608814C860F9
:103A00000846006820F48020086000208861C80310
:103A1000014980390860704788ED00E000100240DD
:103A2000FFFFF6EA90F8241001F0010139B10168B6
:103A3000496821F40031826A11430268516090F8AC
:103A4000241001F00201022907D10168496821F41C
:103A50008031C26A11430268516090F8241001F06D
:103A60000401042907D10168496821F48021026B0F
:103A700011430268516090F8241001F008010829F0
:103A800007D10168496821F40041426B1143026883
:103A9000516090F8241001F01001102907D101683D
:103AA000896821F48051826B11430268916090F81B
:103AB000241001F02001202907D10168896821F430
:103AC0000051C26B11430268916090F8241001F01C
:103AD0004001402913D10168496821F48011026C2A
:103AE000114302685160016CB1F5801F07D1016874
:103AF000496821F4C001426C11430268516090F89A
:103B0000241001F08001802907D10168496821F45F
:103B10000021826C114302685160704738B5044639
:103B20000020E067FDF75AFD05462068006800F0B8
:103B3000080008280CD16FF07E402B4600224FF47D
:103B400000110090204600F00AFA08B1032038BDA9
:103B50002068006800F0040004280CD16FF07E405B
:103B60002B4600224FF480010090204600F0F7F928
:103B700008B10320EBE720206067A06700BF0020AA
:103B800084F8700000BF00BFE1E700002DE9F84FA6
:103B900004460026002000908246E74920688842BB
:103BA00000D100E000BF2169A068084361690843B3
:103BB000E16940EA010920680068E049084040EAFC
:103BC0000900216808602068406820F44050E168DE
:103BD000084321684860D4F81890D7492068884283
:103BE00002D0206A40EA09092068806820F4306029
:103BF00040EA09002168886000BFD14920688842F6
:103C000016D1D048006800F0030030B1012808D078
:103C1000022804D0032808D105E0012507E0022589
:103C200005E0042503E0082501E0102500BF39E088
:103C3000C5492068884216D1C248006800F00C00CF
:103C400030B1042808D0082804D00C2808D105E099
:103C5000002507E0022505E0042503E0082501E032
:103C6000102500BF1EE0B4492068884219D1B5482C
:103C7000006800F4406048B1B0F5806F0AD0B0F53C
:103C8000006F05D0B0F5406F08D105E0002507E0D2
:103C9000022505E0042503E0082501E0102500BF0A
:103CA00000E0102500BFA4492068884272D1042D8D
:103CB00010D003DC3DB1022D13D108E0082D0DD04A
:103CC000102D0ED10EE0FEF7D7FB82460DE0DFF897
:103CD0007CA20AE0FEF7F4FB824606E04FF4004ABD
:103CE00003E000BF0120009000BF00BFBAF1000F49
:103CF0000AD0606800EB4000504503D860680003BC
:103D0000504502D2012000900FE1042D2ED003DC9B
:103D10003DB1022D51D118E0082D3CD0102D4CD1D1
:103D20004CE0FEF7A9FB4FF48071A0FB0131606805
:103D300040081F1841F10001D4F804C06246002376
:103D40003846FCF73FFA06463BE0D4F804C04FEA99
:103D50005C0000217E4BC71841EB010862460B4610
:103D600038464146FCF72EFA06462AE0FEF7A8FB45
:103D70004FF48071A0FB0130616849085F1840F181
:103D80000001D4F804C0624600233846FCF71AFA52
:103D9000064616E022E0D4F804C04FEA5C00002199
:103DA0004FF40003C71841EB010862460B46384642
:103DB0004146FCF707FA064603E000BF01200090E9
:103DC00000BF00BFB6F5407F05D3B6F5801F02D215
:103DD0002068C660A9E001200090A6E0E069B0F587
:103DE000004F57D1042D28D005DC4DB1012D11D045
:103DF000022D36D118E0082D29D0102D31D131E017
:103E0000FEF73AFB4000616800EB5100B0FBF1F0B7
:103E100086B22AE0FEF742FB4000616800EB5100E9
:103E2000B0FBF1F086B220E04A49606801EB500037
:103E30006168B0FBF1F086B217E0FEF741FB40008D
:103E4000616800EB5100B0FBF1F086B20DE04FF479
:103E50008031606801EB50006168B0FBF1F086B220
:103E600003E000BF0120009000BF00BF102E0ED362
:103E7000B6F5803F0BD24FF6F07006EA000BC6F3A2
:103E800042004BEA000B2068C0F80CB04DE0012066
:103E900000904AE0042D26D005DC4DB1012D10D054
:103EA000022D33D116E0082D26D0102D2ED12EE074
:103EB000FEF7E2FA616800EB5100B0FBF1F086B268
:103EC00028E0FEF7EBFA616800EB5100B0FBF1F07F
:103ED00086B21FE01D49606801EB50006168B0FBCD
:103EE000F1F086B216E0FEF7EBFA616800EB5100E4
:103EF000B0FBF1F086B20DE04FF40041606801EBD9
:103F000050006168B0FBF1F086B203E000BF012011
:103F1000009000BF00BF102E05D3B6F5803F02D23F
:103F20002068C66001E001200090002020666066E5
:103F3000009800F011B8000000800040F369FFEF26
:103F40000038014088100240004400400024F40082
:103F5000000024F40048E80118BCBDE8E08F2DE91A
:103F6000F04104460D4617469846069E1FE0701C19
:103F7000E8B1FDF733FBA0EB0800B04200D8B6B9BA
:103F80002068006820F4D07021680860206880688C
:103F900020F001002168886020206067A06700BFD2
:103FA000002084F8700000BF0320BDE8F081206885
:103FB000C0692840A84201D1012000E00020B84299
:103FC000D5D00020F1E702460020D2F8903283F8E5
:103FD0005000704770B504460E46D4F89052697888
:103FE0002878D4F89432DA68904740232A46012191
:103FF000204600F070FD002070BD70B504460D46EF
:104000008121204600F0EBFB0021E16201212046E6
:1040100000F0E5FB0021C4F85811D4F8900250B12B
:10402000D4F8941288688047D4F8900201F033F9EC
:104030000020C4F89002002070BD70B50546D5F888
:104040009042E06C012807D161782078D5F894324D
:10405000DA6890470020E064002070BD01460A2025
:104060000880014870470000DC010020014629203B
:1040700008800148704700004C01002001462920BB
:10408000088001487047000078010020014629207F
:104090000880014870470000A40100202DE9F0418C
:1040A00004460F460026022303228121204600F009
:1040B000E1FC0121E16202230322204600F0DAFC48
:1040C0000121C4F85811542001F0E6F8C4F8900218
:1040D000D4F8900208B901260EE0D4F890520020DE
:1040E00085F85000D4F894124868804740232A4647
:1040F0000121204600F0EFFC3046BDE8F081024689
:10410000022011B1C2F89412002070472DE9F0414D
:1041100004460D461646D4F8907294F874020328AB
:104120000FD197F8500048B9012087F85000334666
:104130002A468121204600F0ECFD02E00120BDE886
:10414000F0810020FBE700002DE9F84306460C460D
:10415000D6F890520027B84600200090814620787B
:1041600000F0600090B3202870D16078801E0A288B
:1041700023D2DFE800F0130822222222221A0F05A0
:10418000A078286420E0012205F14001304600F0CB
:1041900004F919E060880012686415E0012205F155
:1041A0004401304600F0F9F80EE00120E864E288AE
:1041B0002946304600F0D0F806E02146304600F0AF
:1041C000BFF84FF0020900BF00BF70E0FFE7607862
:1041D00030B1062815D00A2839D00B2857D148E02D
:1041E00096F87402032805D102226946304600F091
:1041F000D4F805E02146304600F0A2F84FF002095D
:104200004CE060882221B1EB202F0BD1E0886C2894
:1042100001D96C2000E0E0880746D6F89402D0F877
:1042200000800DE060882121B1EB202F08D1DFF85C
:104230008880E088092801D9092000E0E088074645
:104240003A464146304600F0A8F827E028E096F8C4
:104250007402032806D1012205F14801304600F01E
:104260009CF805E02146304600F06AF84FF002095C
:1042700014E096F87402032802D1A078A86405E03F
:104280002146304600F05CF84FF0020906E0214676
:10429000304600F055F84FF0020900BF00BF06E0BD
:1042A0002146304600F04CF84FF0020900BF00BF35
:1042B0004846BDE8F8830000D001002070B50446F0
:1042C0000D46D4F88C0229464268204690470020CB
:1042D00070BD70B504460D4694F87402012804D0F0
:1042E000022803D003280CD101E000BF00BF68887A
:1042F000012805D10020C4F87C02204600F05EF8B9
:1043000004E02946204600F01BF800BF00BF70BD46
:1043100070B506460C4615462B462246002130460F
:1043200000F0D9FB002070BD70B506460C4615465E
:104330002B4622460021304600F0EBFC002070BDE9
:1043400070B504460D468021204600F098FC0021FF
:10435000204600F094FC70BD70B504460E4615462C
:104360000320C4F86C024FF4A4700551001D0551E0
:104370002B4632460021204600F0ADFB002070BDE8
:1043800010B504460520C4F86C0200231A461946ED
:10439000204600F0A0FB002010BD70B504460E467C
:1043A00015460220C4F86C02E56125622B463246B0
:1043B0000021204600F0ADFC002070BD10B5044681
:1043C0000420C4F86C0200231A461946204600F067
:1043D000A0FC002010BD000070B505460C462DB9AC
:1043E0002246064906A000F096F904E02246034959
:1043F00003A000F090F9014870BD0000CC09002036
:10440000437573746F6D2048494420436F6E66692D
:104410006700000002461220088001487047000033
:104420004800002070B505460C462DB922460649C5
:1044300006A000F070F904E02246034903A000F052
:104440006AF9014870BD0000CC09002043757374FF
:104450006F6D2048494420496E74657266616365DA
:104460000000000002460420088001487047000058
:104470005C00002070B505460C462246024903A0A8
:1044800000F049F9004870BDCC09002053544D6933
:1044900063726F656C656374726F6E69637300003D
:1044A00070B505460C462DB92246064906A000F017
:1044B00032F904E02246034903A000F02CF9014838
:1044C00070BD0000CC09002053544D333220437599
:1044D00073746F6D2048756D616E20696E746572BE
:1044E000666163650000000070B505460C461A2041
:1044F0002080FCF7DDF8014870BD0000600000205E
:1045000070B504460D46E888012804D029462046A7
:10451000FFF716FF1EE094F87402012804D0022869
:1045200003D0032810D109E000BF0020A0600122C1
:1045300004F108012046FFF730FF0AE00122211DA7
:104540002046FFF72AFF04E029462046FFF7F8FE41
:1045500000BF00BF70BDF8B504460E46708800125B
:1045600008287FD2DFE800F07E040C207E7E5F6D9D
:10457000207CD4F888120A6869469047054676E0A0
:10458000207C40B9D4F88C02816A68468847054689
:104590000221697007E0D4F88C02C16A6846884736
:1045A00005460221697062E0B078062834D2DFE85F
:1045B00000F0030B131B232B207CD4F888124A68CD
:1045C0006946904705462CE0207CD4F888128A681A
:1045D00069469047054624E0207CD4F88812CA68D2
:1045E0006946904705461CE0207CD4F888120A6989
:1045F00069469047054614E0207CD4F888124A6941
:104600006946904705460CE0207CD4F888128A69F8
:1046100069469047054604E031462046FFF790FE84
:10462000F8BD00BF23E0207C30B9D4F88C02416B88
:104630006846884705461AE031462046FFF780FE67
:10464000EEE7207C48B9D4F88C02016B68468847B5
:104650000546072169700AE004E031462046FFF76D
:104660006FFEDDE731462046FFF76AFED8E700BF60
:10467000BDF8000088B1F08878B1F088BDF800106E
:10468000884202DDBDF8000000E0F0880090BDF82F
:10469000002029462046FFF780FEF08810B920460A
:1046A000FFF78CFE00BFBBE70146002002E0421C82
:1046B000D0B2491C0A78002AF9D1704770B5044677
:1046C0000D4694F87402012804D0022803D0032870
:1046D0001AD101E000BF00BFE888022804D02946B3
:1046E0002046FFF72DFE14E00120E060D4F87C02A4
:1046F00018B1E06840F00200E060022204F10C0111
:104700002046FFF74AFE04E029462046FFF718FE40
:1047100000BF00BF70BD2DE9F04104460D461746AD
:104720000026FCB12046FFF7BFFF022101EB40004D
:1047300038803A783046711CCEB22A540322304673
:10474000711CCEB22A540AE014F8012B3046711CB9
:10475000CEB22A5400223046711CCEB22A542078A0
:104760000028F1D1BDE8F08170B504460D4616462B
:104770000CB9022070BDD4F88C0210B10020C4F82E
:104780008C020DB1C4F88852012084F8740226709E
:10479000204600F019F90020ECE72DE9F04104462D
:1047A0000D46002600272946D4F89802FDF76AF83E
:1047B000064636B1012E06D0022E06D0032E08D1B1
:1047C00005E0002707E0022705E0012703E00227B4
:1047D00001E0022700BF00BF3846BDE8F0812DE9A7
:1047E000F04104460D46002600272946D4F89802D9
:1047F000FDF717F8064636B1012E06D0022E06D078
:10480000032E08D105E0002707E0022705E0012775
:1048100003E0022701E0022700BF00BF3846BDE8E1
:10482000F0812DE9F04104460E461746002E64D172
:1048300004F11405D4F86C02022848D1D5E903012B
:10484000884210D9D5E90301401AE860A88982B2EC
:1048500039462046FFF768FD00231A4619462046D0
:1048600000F039F93EE02969A868B0FBF1F201FBDC
:104870001200B8B92969A868884213D3A868D4F887
:10488000701288420ED2002211462046FFF74CFDDE
:104890000020C4F8700200231A461946204600F092
:1048A0001AF91FE0D4F88C02C06840B194F8740281
:1048B000032804D1D4F88C02C1682046884780219F
:1048C000204600F0DCF92046FFF75AFD0AE0D4F854
:1048D0006C02042802D0D4F86C0218B9802120465A
:1048E00000F0CDF994F87802012818D1204600F0A4
:1048F0005DFA002084F8780211E0D4F88C02406957
:1049000050B194F87402032806D1D4F88C023146D1
:1049100042692046904702E00220BDE8F081002075
:10492000FBE72DE9F04104460E461746BEBB04F5F1
:10493000A075D4F86C02032825D1D5E9030188427B
:1049400010D9D5E90301401AE860D5E9030188428E
:1049500001D2E86800E0286982B239462046FFF7B4
:10496000D7FC2FE0D4F88C02006940B194F87402AF
:10497000032804D1D4F88C020169204688472046D8
:10498000FFF71CFD1EE0D4F86C0205281AD10020A8
:10499000C4F86C020021204600F071F912E0FFE734
:1049A000D4F88C02806950B194F87402032806D1BF
:1049B000D4F88C02314682692046904702E00220FA
:1049C000BDE8F0810020FBE710B50446FDF7D8FAFA
:1049D0001A48C0F87042C4F898021948174908608C
:1049E0000820486002211548816001610021416171
:1049F0008161C1610162FDF740F908B1FBF757FE23
:104A0000182300221146D4F89802FCF7D0FE582350
:104A100000228021D4F89802FCF7C9FE98230022D6
:104A20008121D4F89802FCF7C2FED823002201218C
:104A3000D4F89802FCF7BBFE002010BD0007002050
:104A40000068004010B50246D2F8983201F08000AC
:104A5000802807D101F07F0403F1280000EB441007
:104A6000807810BD01F07F0403F5947000EB4410D2
:104A70008078F6E72DE9F04704460F4615461E46B6
:104A80004FF00008C1462B4632463946D4F898020A
:104A9000FCF732FF8046B8F1000F09D0B8F1010FE2
:104AA00009D0B8F1020F09D0B8F1030F0CD108E01A
:104AB0004FF000090BE04FF0020908E04FF0010948
:104AC00005E04FF0020902E04FF0020900BF00BF0D
:104AD0004846BDE8F0872DE9F04704460D461646E6
:104AE0001F464FF00008C1463B4632462946D4F8DF
:104AF0009802FCF743FF8046B8F1000F09D0B8F1E7
:104B0000010F09D0B8F1020F09D0B8F1030F0CD191
:104B100008E04FF000090BE04FF0020908E04FF009
:104B2000010905E04FF0020902E04FF0020900BF61
:104B300000BF4846BDE8F08710B504464023002278
:104B400011462046FFF796FF01214FF4A270015154
:104B500040214FF4A87001514023002280212046BB
:104B6000FFF788FF0121A16140216162012084F8E3
:104B700074020020C4F86C026060C4F87C02D4F8AF
:104B8000900228B12179D4F88C02426820469047DF
:104B9000002010BD014691F8750281F874020020D2
:104BA000704710B5044694F87402032808D1D4F86D
:104BB0008C02C06920B1D4F88C02C16920468847B4
:104BC000002010BD02461174002070472DE9F0410D
:104BD00004460D46002600272946D4F89802FDF722
:104BE00038F9064636B1012E06D0022E06D0032E25
:104BF00008D105E0002707E0022705E0012703E0D0
:104C0000022701E0022700BF00BF3846BDE8F0815F
:104C100070B504460D46294604F5207000F0AAF848
:104C20000120C4F86C0240F28620005BC4F87002D8
:104C300094F8800200F01F0020B1012808D002285B
:104C400012D10BE004F52071204600F078F913E052
:104C500004F52071204600F0DFFA0DE004F5207124
:104C6000204600F0BDF907E094F8800200F08001D2
:104C7000204600F004F800BF00BF002070BD2DE901
:104C8000F04104460D46002600272946D4F8980234
:104C9000FCF798FE064636B1012E06D0022E06D04D
:104CA000032E08D105E0002707E0022705E00127D1
:104CB00003E0022701E0022700BF00BF3846BDE83D
:104CC000F08170B5044600250026D4F89802FDF75F
:104CD000E4F8054635B1012D06D0022D06D0032D8E
:104CE00008D105E0002607E0022605E0012603E0E2
:104CF000022601E0022600BF00BF304670BD01461B
:104D000091F8740281F87502042081F87402002081
:104D100070472DE9F04704460D4616461F464FF0F2
:104D20000008C1463B4632462946D4F89802FCF7B3
:104D300089FE8046B8F1000F09D0B8F1010F09D003
:104D4000B8F1020F09D0B8F1030F0CD108E04FF011
:104D500000090BE04FF0020908E04FF0010905E0FF
:104D60004FF0020902E04FF0020900BF00BF4846C1
:104D7000BDE8F0870A7802704A7842708B78CA786A
:104D800003EB022242800B794A7903EB02228280F4
:104D90008B79CA7903EB0222C28070470246002059
:104DA00011B1C2F88C1200E00220704701460020C9
:104DB000704770B504460D46A88810BBE88800BB54
:104DC000688880281DD2A87800F07F0694F87402C5
:104DD000032804D129462046FFF7B2FA15E084F8EB
:104DE000766231462046FFF7F1FE2046FFF7E6FAED
:104DF0001EB1022084F8740207E0012084F87402D6
:104E000003E029462046FFF79BFA70BD70B50446C3
:104E10000D460226D4F88C0238B1D4F88C0229460B
:104E200002682046904700B90026304670BD000059
:104E300070B504460D46A8783649087008460078D3
:104E4000012804D929462046FFF77AFA60E094F851
:104E50007402022802D003284FD11CE02D480078AC
:104E6000A8B12C4800786060032084F874022948B7
:104E700001782046FFF7CAFF022804D129462046C0
:104E8000FFF75EFA70BD2046FFF798FA02E0204671
:104E9000FFF794FA3BE01F48007870B9022084F8CD
:104EA00074021C48007860601A4801782046FFF7B9
:104EB00005FA2046FFF782FA1EE016490978606875
:104EC000884216D021792046FFF7F8F9114800787A
:104ED0006060104801782046FFF798FF022804D14F
:104EE00029462046FFF72CFACCE72046FFF766FA62
:104EF00002E02046FFF762FA09E029462046FFF764
:104F00001FFA044801782046FFF7D8F900BF00BF18
:104F100000BFB7E71001002070B505460C46608859
:104F2000012804D1C5F87C022846FFF747FA70BD76
:104F300010B504462046FFF7C4FE002010BD70B532
:104F400005460C460026207800F0600060B120285D
:104F500002D040283CD100E000BFD5F88C022146A9
:104F600082682846904738E060780A2829D2DFE82E
:104F700000F01923281E280A0528140F2146284668
:104F8000FFF7E9FA22E021462846FFF712FF1DE06D
:104F900021462846FFF74CFF18E021462846FFF738
:104FA000AFFA13E021462846FFF788FB0EE02146C2
:104FB0002846FFF7B1FF09E021462846FFF789F9A7
:104FC00004E021462846FFF7BBF900BF00BF04E01C
:104FD00021462846FFF7B4F900BF00BF304670BD38
:104FE0002DE9F04105460E464FF00008347930783F
:104FF00000F0600060B1202802D0402871D100E0AC
:1050000000BFD5F88C02314682682846904700E1FF
:10501000307800F06000202809D1D5F88C023146A4
:1050200082682846904780464046BDE8F081707807
:1050300000285ED001282FD0032876D195F874027D
:10504000022802D0032820D110E054B1802C08D0CF
:1050500021462846FFF713FE80212846FFF70FFE62
:1050600003E031462846FFF76BF913E0708840B93A
:105070003CB1802C05D0F08818B921462846FFF7AE
:10508000FEFD2846FFF79AF904E031462846FFF76F
:1050900057F900BF00BFB5E095F87402022802D0AE
:1050A00003281FD110E054B1802C08D02146284697
:1050B000FFF7E5FD80212846FFF7E1FD03E03146DB
:1050C0002846FFF73DF912E0708848B904F07F00E8
:1050D00018B121462846FFF760FB2846FFF76EF916
:1050E00005E091E031462846FFF72AF900BF00BFEE
:1050F00088E095F87402022802D0032876D126E0D1
:1051000034B1802C04D031462846FFF719F972E0FB
:1051100004F08000802809D104F07F0000EB8001BA
:1051200005F1140000EB810008E066E004F07F0068
:1051300000EB800105F5A07000EB81000746002020
:105140003860022239462846FFF727F953E004F079
:10515000800080280ED104F00F0000EB800105F1E3
:10516000140000EB8100406898B931462846FFF7EB
:10517000E7F840E004F00F0000EB800105F5A070B7
:1051800000EB8100406820B931462846FFF7D8F887
:1051900031E004F08000802808D104F07F0000EBAB
:1051A000800105F1140000EB810007E004F07F00AE
:1051B00000EB800105F5A07000EB810007460CB103
:1051C000802C02D10020386009E021462846FFF7F4
:1051D00039FC10B10120386001E000203860022263
:1051E00039462846FFF7D9F805E0FFE7314628465B
:1051F000FFF7A6F800BF00BF04E031462846FFF7DE
:105200009FF800BF00BF04E031462846FFF798F83A
:1052100000BF00BF404608E770B505460C460026B3
:10522000207800F0600030B1202802D040282AD138
:1052300000E000BF00BF95F87402012804D00228E6
:1052400003D0032818D101E000BF00BF2079012856
:105250000DD8D5F88C02214682682846904706462C
:10526000E08840B93EB92846FFF7A8F803E0214698
:105270002846FFF765F804E021462846FFF760F866
:1052800000BF00BF04E021462846FFF759F800BFE1
:1052900000BF002070BD7047014601487047000004
:1052A00074090020F0B5024600260878400032F864
:1052B000100048F68F1400EA0403C87830B10128C2
:1052C0000CD0022805D003280BD104E043F400736E
:1052D00009E000BF07E043F4C06304E043F48063E7
:1052E00001E0012600BF00BF43F4004040F0800011
:1052F0000C78640022F8140000BF0C78640032F8C7
:10530000144048F68F752C400D7844EA050040F4AF
:10531000004444F080040D786D0022F8154000BF71
:10532000087B00287ED14878002852D000BF104664
:10533000B2F8505028440D7800F5806707EBC5049B
:10534000CD886D106D00258000BF00BF0C78640013
:1053500032F8140000F040048CB100BF0D786D00ED
:1053600032F8155048F68F7705EA070444F40045F3
:1053700045F0C0050F787F0022F8175000BF00BF2E
:10538000C878012813D000BF0C78640032F81440AC
:1053900048F6BF7504EA050080F0200040F40044A0
:1053A00044F080040D786D0022F81540BBE100BF89
:1053B0000C78640032F8144048F6BF7504EA050022
:1053C00040F4004444F080040D786D0022F815404C
:1053D000A9E100BF1046B2F8505028440D780427C8
:1053E00007EBC50500F58067EC19CD886D106D00E1
:1053F000258000BF00BF1546B2F8504025440C7808
:10540000062707EBC40405F580673C44204600BF2F
:105410000F6967B9078848F2FF3C07EA0C07078065
:10542000078800E050E047F40047078019E00F6963
:105430003E2F0DD200BF0F697C080F7C07F00107DB
:1054400007B1641C4FF6FF7707EA8427078008E05E
:1054500000BF0F697C094FF4004747EA84270780A3
:1054600000BF00BF00BF00BF0C78640032F814001A
:1054700000F480448CB100BF0D786D0032F81550F7
:1054800048F68F7705EA070444F4004545F4814562
:105490000F787F0022F8175000BF00BF00BF0C78C4
:1054A000640032F814404BF68F7504EA050080F46E
:1054B000805080F4005040F4004444F080040D78A3
:1054C0006D0022F815402EE100BF0C78640032F820
:1054D000144048F68F7504EA050040F4004444F493
:1054E000C0740D786D0022F8154000BF00BF00BFEA
:1054F00000BF1046B2F8505028440D7800F5806780
:1055000007EBC5040D896D106D00258000BF00BF3D
:1055100000BF00BF1046B2F8505028440D78042751
:1055200007EBC50500F58067EC194D896D106D001E
:10553000258000BF00BF00BF4878002870D100BFA1
:105540000C78640032F8140000F480448CB100BF81
:105550000D786D0032F8155048F68F7705EA07048C
:1055600044F4004545F481450F787F0022F8175038
:1055700000BF00BF00BF0C78640032F8140000F0D8
:1055800040048CB100BF0D786D0032F8155048F61C
:105590008F7705EA070444F4004545F0C0050F780D
:1055A0007F0022F8175000BF00BF00BF0C786400D6
:1055B00032F8144048F68F7504EA050040F40044C0
:1055C00044F0C0040D786D0022F8154000BF00BF04
:1055D0000C78640032F814404BF68F7504EA05002D
:1055E00080F4805080F4005040F4004444F0800483
:1055F0000D786D0022F8154000BF00BF0C786400E4
:1056000032F8144048F6BF7504EA050040F400443F
:1056100044F080040D786D0022F8154083E0FFE728
:1056200000BF0C78640032F8140000F480448CB1A0
:1056300000BF0D786D0032F8155048F68F7705EAF7
:10564000070444F4004545F481450F787F0022F8B3
:10565000175000BF00BF00BF0C78640032F8140080
:1056600000F040048CB100BF0D786D0032F8155089
:1056700048F68F7705EA070444F4004545F0C00575
:105680000F787F0022F8175000BF00BF00BF0C78D2
:10569000640032F8144048F68F7504EA050040F4BF
:1056A000004444F481440D786D0022F8154000BF99
:1056B000C878012813D000BF0C78640032F8144079
:1056C00048F6BF7504EA050080F0200040F400446D
:1056D00044F080040D786D0022F8154011E000BF01
:1056E0000C78640032F8144048F6BF7504EA0500EF
:1056F00040F4004444F080040D786D0022F8154019
:1057000000BF00BF0C78640032F814404BF68F7570
:1057100004EA050040F4004444F080040D786D0074
:1057200022F8154000BF3046F0BD10B504460020F9
:1057300010BD30B50246087B00285BD1487860B3C5
:1057400000BF0B785B0032F8130000F040038BB110
:1057500000BF0C78640032F8144048F68F7504EAF4
:10576000050343F4004444F0C0040D786D0022F8B2
:10577000154000BF00BF00BF0B785B0032F813304C
:1057800048F6BF7403EA040040F4004343F080038A
:105790000C78640022F8143007E100BF0B785B003E
:1057A00032F8130000F480438BB100BF0C78640022
:1057B00032F8144048F68F7504EA050343F40044B8
:1057C00044F481440D786D0022F8154000BF00BFFD
:1057D00000BF0B785B0032F813304BF68F7403EA8E
:1057E000040040F4004343F080030C78640022F886
:1057F0001430DAE0487800286BD100BF0B785B00EA
:1058000032F8130000F480438BB100BF0C786400C1
:1058100032F8144048F68F7504EA050343F4004457
:1058200044F481440D786D0022F8154000BF00BF9C
:1058300000BF0B785B0032F8130000F040038BB11F
:1058400000BF0C78640032F8144048F68F7504EA03
:10585000050343F4004444F0C0040D786D0022F8C1
:10586000154000BF00BF00BF0B785B0032F813305B
:1058700048F68F7403EA040040F4004343F0C00389
:105880000C78640022F8143000BF00BF0B785B0076
:1058900032F813304BF68F7403EA040040F40043EF
:1058A00043F080030C78640022F8143000BF00BF7E
:1058B0000B785B0032F8133048F6BF7403EA04003B
:1058C00040F4004343F080030C78640022F8143065
:1058D0006BE000BF0B785B0032F8130000F48043EC
:1058E0008BB100BF0C78640032F8144048F68F7515
:1058F00004EA050343F4004444F481440D786D0048
:1059000022F8154000BF00BF00BF0B785B0032F8E3
:10591000130000F040038BB100BF0C78640032F834
:10592000144048F68F7504EA050343F4004444F03C
:10593000C0040D786D0022F8154000BF00BF00BF05
:105940000B785B0032F8133048F68F7403EA0400DA
:1059500040F4004343F481430C78640022F814308F
:1059600000BF00BF0B785B0032F8133048F6BF74FD
:1059700003EA040040F4004343F080030C78640021
:1059800022F8143000BF00BF0B785B0032F81330F0
:105990004BF68F7403EA040040F4004343F08003A5
:1059A0000C78640022F8143000BF002030BD01469E
:1059B000B1F8580040F40040A1F8580000207047AA
:1059C0000146B1F85800C0F30E00A1F858000020BD
:1059D000704710B50446012024F8400F00202080B5
:1059E000A0802082403C204600F0B4FA002010BD88
:1059F00001464BF68072B1F840009043A1F8400098
:105A00000020704702460020704730B50246087BF0
:105A1000002865D1487888B300BF0B785B0032F866
:105A2000130000F040038BB100BF0C78640032F823
:105A3000144048F68F7504EA050343F4004444F02B
:105A4000C0040D786D0022F8154000BF00BFC87873
:105A5000012845D000BF0B785B0032F8133048F6C0
:105A6000BF7403EA040080F0200040F4004343F0D8
:105A700080030C78640022F8143031E0FFE700BFA7
:105A80000B785B0032F8130000F480438BB100BF49
:105A90000C78640032F8144048F68F7504EA050368
:105AA00043F4004444F481440D786D0022F815401D
:105AB00000BF00BF00BF0B785B0032F813304BF61D
:105AC0008F7403EA040080F4805080F4005040F4A6
:105AD000004343F080030C78640022F8143000BFC8
